:1000000000308A00B22800000A108A100A11820704
:100010003F3406345B344F3466346D347D340734FA
:100020007F346F342230840083130008031925289D
:100030000630F800F701F70B1B28F80B1A287B3065
:10004000F700F70B2128800B182808003230A20097
:1000500012208316081083120814831608168312C0
:10006000081E37283230A20012200330A000831669
:1000700088168312881E41283230A20012200630D2
:10008000A000831608178312081F4B283230A200E5
:1000900012200930A0008316081083120810323095
:1000A000A200122083168810831288148316081663
:1000B0008312081E60283230A20012200230A000F5
:1000C000831688168312881E6A283230A2001220F6
:1000D0000530A000831608178312081F74283230D9
:1000E000A20012200830A000831688178312881FF0
:1000F0007D283230A2001220A001831688108312BE
:1001000088103230A20012208316081183120815BD
:10011000831608168312081E92283230A20012207D
:100120000130A000831688168312881E9C28143084
:10013000A20012200430A000831608178312081FA3
:10014000A6283230A20012200730A0008316081122
:10015000831208113230A20012202008F8008A1100
:100160000A12C22883161F149F141F159F110730EF
:100170009C0083131F308305003086000F308800F9
:10018000831226287808A10021080420A2008316E3
:0C0190008601831222088600C12863004B
:02400E00323F3F
:00000001FF
;PIC16F877A
;CRC=AAC9  CREATED="18-Ara-20 22:45"
